:020000040800F2
:10000000000002206960010841CF000843CF0008CA
:1000100049CF00084BCF00084DCF0008000000007A
:1000200000000000000000000000000091AE000889
:100030004FCF00080000000031AF000895AF000866
:10004000B9600108B9600108B9600108B960010828
:1000500051CF0008B9600108B9600108B960010812
:10006000B960010859CF000863CF0008B9600108E2
:100070006DCF00087DCF0008B9600108B9600108A4
:10008000B9600108B9600108B9600108B9600108E8
:100090008DCF00089DCF0008B9600108ADCF0008E2
:1000A000B9600108B9600108B9600108B9600108C8
:1000B000B9600108B9600108B9600108B9600108B8
:1000C000B9600108B9CF0008C9CF0008D9CF00082E
:1000D000E9CF0008F9CF0008B960010809D000088D
:1000E000B9600108B9600108B9600108B960010888
:1000F000B960010819D00008B960010831D00008C2
:10010000B9600108B9600108B9600108B960010867
:10011000B9600108B9600108B9600108B960010857
:1001200041D00008B960010851D0000861D0000832
:10013000B9600108B9600108B9600108B960010837
:1001400071D0000881D00008B960010891D0000882
:10015000A1D00008B1D00008C1D00008D1D000085B
:10016000E1D00008F1D00008B9600108B9600108C9
:10017000B9600108B9600108B96001080000000019
:08018000B9600108B960010833
:1001C000830730B547D0541E002A3ED0CAB203463A
:1001D00001E0013C39D303F8012B9D07F9D1032C31
:1001E0002CD9CDB205EB05250F2C05EB054535D9EE
:1001F000A4F1100222F00F0C03F1100EE6444FEAB6
:10020000121C1A46C2E90055C2E902551032724565
:10021000F8D10CF1010214F00C0F03EB021204F000
:100220000F0C13D0ACF1040323F003030433134485
:1002300042F8045B9342FBD10CF003042CB1C9B229
:100240001C4403F8011BA342FBD130BD6446134696
:10025000002CF4D1F9E703461446C0E71A46A44639
:10026000E0E700BF70B50F4B0F4DAB42A3EB0506A7
:1002700007D0B610002455F8043B01349847A64235
:10028000F9D816F031FB094D094B5E1BAB424FEA22
:10029000A60606D0002455F8043B01349847A64230
:1002A000F9D870BDB8840108B8840108B884010881
:1002B000BC840108704700BF704700BF704700BF93
:1002C000704700BF704700BF704700BF01207047F4
:1002D00001207047704700BF704700BF002950D011
:1002E00038B551F8043C0C1F002BB8BFE418054684
:1002F00000F0F6F8274A13682BB1A3420CD9216805
:10030000601883422CD0636028461460BDE83840F2
:1003100000F0ECB8A3420FD81A465B68002BF9D165
:1003200011685018844217D02CD36360546028465B
:10033000BDE8384000F0DAB811685018A04214D077
:1003400020D8216860188342EFD118685B680844A0
:10035000C4E900035460EAE723680B441360E6E74E
:1003600018685B6808442060CDE720680144501895
:1003700083421160DBD1D3E900040144C2E90014D7
:10038000D5E770470C232B602846BDE8384000F0C5
:10039000ADB800BFBC06002070B5104E33680546EE
:1003A0000C46B3B12146284600F0A6F8431C0CD0F9
:1003B000C41C24F00304A04205D0211A284600F0F2
:1003C0009BF8013001D0204670BD4FF0FF3420462D
:1003D00070BD194600F090F83060E3E7B8060020E1
:1003E0002DE9F843CD1C25F0030508350C2D38BF49
:1003F0000C25002D064618DBA94216D8DFF8DC8054
:1004000000F06EF8D8F80420A2B1144603E0636847
:1004100022467BB11C4623685B1BF8D40B2B1FD8EC
:100420009442636854D053600CE00C233360002086
:10043000BDE8F88329463046FFF7AEFF431C04466B
:1004400019D00560304600F051F804F10B00231D6F
:1004500020F00700C21A1CBF1B1AA350BDE8F88386
:1004600061199442256014BF5160C8F804106351AB
:1004700063684B60E6E7D8F804701FB33C467F68BA
:10048000002FFBD123683946304604EB030900F006
:1004900033F8814516D12368ED1A29463046FFF717
:1004A0007BFF01300ED02368D8F804202B44236052
:1004B000536883B1A34203D01A465B689C42FBD1C8
:1004C0000023B0E70C233360304600F00FF8AEE7AE
:1004D000C8F80430B6E7C8F80470B3E7B8060020DF
:1004E0000148FFF7F1BE00BFA80600200148FFF752
:1004F000F3BE00BFA806002038B5074D0022044611
:1005000008462A600CF0FCFD431C00D038BD2B6867
:10051000002BFBD0236038BD9406002038B52DEDAC
:10052000028B55EC104B00F029F922462B46204651
:100530002946B0EE408AF0EE608A01F0D3FF30B970
:10054000002200232046294601F0A4FF30B9B0EE76
:10055000480AF0EE680ABDEC028B38BD02F032F9B1
:1005600000220023212101601046194601F04AFEB5
:1005700041EC180BB0EE480AF0EE680ABDEC028BB5
:1005800038BD00BF08B52DED028BB0EE408A00F0FB
:10059000B5FAB4EE488AF1EE10FAF0EE408A0AD6C7
:1005A000B0EE480A00F0A2F8F7EE007AB4EEE70ADF
:1005B000F1EE10FA04DCB0EE680ABDEC028B08BD67
:1005C00002F000F9BDEC028B034621221A600248BA
:1005D000BDE8084000F0CCB8B077010808B52DEDB3
:1005E000028BB0EE408A00F0ABFBB4EE488AF1EE2D
:1005F00010FAF0EE408A0AD6B0EE480A00F076F81B
:10060000F7EE007AB4EEE70AF1EE10FA04DCB0EE91
:10061000680ABDEC028B08BD02F0D4F8BDEC028B79
:10062000034621221A600248BDE8084000F0A0B845
:10063000B077010800F080BC08B52DED028BB0EE5C
:10064000408A00F08DF9B4EE488AF1EE10FA06D631
:10065000DFED098AB4EEE88AF1EE10FA02D4BDECBF
:10066000028B08BD02F0AEF888EEA80ABDEC028B42
:100670002123036008BD00BF0000000010EE103A07
:10068000184923F000428A421AD9B2F1FF4F02D32F
:1006900030EE400A704700B583B0684600F0F2FCC7
:1006A00000F003000128DDED010A9DED000A10D0E5
:1006B000022809D090B900F057F903B05DF804FBA7
:1006C000DFED090A00F050B900F04EF9B1EE400A32
:1006D000F3E700F0CBF9B1EE400AEEE7012000F0BD
:1006E000C5F9EAE7D80F493F0000000010EE103AC4
:1006F00023F0004300EE103A704700BF10EE103AAE
:10070000194923F000428A421BD9B2F1FF4F02D3AC
:1007100030EE400A704700B583B0684600F0B2FC86
:1007200000F003000128DDED010A9DED000A13D061
:1007300002280BD098B9012000F098F903B05DF8B9
:1007400004FBDFED0A0A002000F090B9012000F060
:100750008DF9B1EE400AF1E700F006F9EEE700F09E
:1007600003F9B1EE400AE9E7D80F493F0000000065
:100770009FED010A704700BF0000C07F2DE9F047E0
:10078000754955EC104BA94300F0A980002D2A466D
:10079000234655DD2C1562D0C2F31302E107A4F203
:1007A000FF3742F4801203D4D90F01EB42025B0001
:1007B0005200002602EBD3727F105B001624B44671
:1007C0004FF400110CEB010090424FEAD3754FEA51
:1007D000430303DC00EB010C121A0E44013C05EB51
:1007E00042024FEA5101EDD1A04620254FF00040D2
:1007F0000AE043D0510001EBD371013D0A464FEAB4
:1008000043034FEA500045D0944508EB000EF0DA60
:10081000BEF1000F0EEB00080CDBE146A2EB0C0171
:100820009E4588BF01F1FF314900CC46A3EB0E0382
:100830000444E0E7B8F1000FEFDB0CF10109EDE74C
:1008400025F00041214344D0002D6FD1D90A153A3B
:100850005B050029FAD0CE02144674D40A46002162
:100860005200D502084601F10101F9D5C1F1200578
:1008700023FA05F52A438B40241A8DE79E4502D9B9
:100880004FEA4C01B7E7BEF1000F0EEB000822DB88
:100890000021CBE7194310D0DFF8C0A0DAE900014E
:1008A000DAE9022301F0CCF9DAE9008902460B46C5
:1008B0004046494601F0F8FDF8B96508711001F1AC
:1008C0007F5101F5001101EB075345EAC67243EC75
:1008D000102BBDE8F087B8F1000FAEDAD8E722465A
:1008E0002B462046294601F063FB22462B4601F0A9
:1008F000A9F941EC100BBDE8F087B4F1FF3FDAE94C
:100900000001DAE9022322D001F09CF9DAE900893A
:1009100002460B464046494601F0BCFDC8B1A31C47
:1009200004F1020508BF01366D08C7E722462B46D1
:100930002046294601F084F902460B4601F062FC8C
:1009400041EC100BC5E74FF0FF300A4694E7013643
:10095000B4E70134B1E700BF0000F07FC8690108C7
:10096000B1EEC00A704700BF10EE103A23F000430A
:10097000B3F1485F2CD2FDEEC07A17EE903A002B0F
:1009800060D060EE007A9FED317A9FED315ADFED55
:10099000315A9FED316ADFED316AA7EE875A9FED3C
:1009A000307AE7EE855AA7EEA56AA7EE867AE7EEDB
:1009B000876A67EEA66A60EEC00AB6EE007AE7EED6
:1009C000A60AB7EE000AD7EE870A30EE600A704733
:1009D00060EE007A9FED1D7A9FED1D5ADFED1D5AE6
:1009E0009FED1D6ADFED1D6A1E4AA7EE875A9342EE
:1009F0009FED1B7AE5EE275AA5EEA76AA6EE277AA9
:100A0000E7EE276A66EEA76AD5D9174A934214D84B
:100A100003F17F4307EE103AB7EE006A36EE476AFD
:100A200060EEC00AF6EE005A97EEA57AE7EEA60A47
:100A300037EE607A36EE470A7047B6EE076AB5EED3
:100A4000027AEDE7B7EE000A704700BF4ED747AD18
:100A5000F6740F317CF293B4010DD037ABAA2A3D66
:100A6000610BB6BA9999993E0000483F10EE103AD2
:100A700023F00043B3F1485F04D2FDEEC07A17EED5
:100A8000903A5BB360EE007A9FED157ADFED155A70
:100A90009FED156ADFED156AE7EE875A9FED147A30
:100AA000A5EEA76A20EE275AE6EE276AA6EEA77AF9
:100AB00030B9DFED106AE7EE876AA6EE850A704767
:100AC00027EE457AF6EE006AA0EEA67ADFED0A6A16
:100AD000D7EE270AE5EE260A30EE600A704700BF1F
:100AE000D3C92E2F342FD7B21BEF3836010D50B992
:100AF0008988083CABAA2ABEABAA2A3E08B510EEEC
:100B0000102A22F00043B3F17E5F2DED028B12D04C
:100B10000AD8B3F17C5F19D2B3F10C5F6AD8BDEC8F
:100B2000028B9FED760A08BD70EE407A87EEA70A29
:100B3000BDEC028B08BDBDEC028B9FED710ADFEDB1
:100B4000717A002AC8BFB0EE670A08BD002AC0F259
:100B50008E80F7EE008A38EEC00AF6EE007A20EEBC
:100B6000278AB0EE480AFFF7FBFEDFED677A9FEDBC
:100B7000677ADFED676ADFED675A9FED676AA8EE77
:100B8000277ADFED667AE7EE086AE8EE067AE6EEA7
:100B9000885A9FED636A9FED637ADFED636AA5EE85
:100BA000886AA7EE887ADFED617AE6EE087A10EEC1
:100BB000103AE7EE086A6FF30B03B0EE677A07EEC0
:100BC000903AF0EE485AE7EEE75AE6EE888A30EEC1
:100BD000276A27EE087AC5EE866A87EE286ABDEC9A
:100BE000028BB0EE667AA0EE067A37EE870A30EE18
:100BF000000A08BD20EE007ADFED437A9FED436ADC
:100C0000DFED436A9FED445ADFED425AA7EE276AB3
:100C1000BDEC028BE6EE076ADFED407A9FED416A9C
:100C2000E7EE057AE6EE875AA7EE876A9FED3C5A13
:100C3000DFED3D7ADFED3D6AA5EE875AE6EE077AF5
:100C4000E5EE076AF7EE005AE7EE875A26EE877A56
:100C50009FED376ADFED377AC7EE256AB0EE467A48
:100C6000A0EE667A30EE470A37EEC00A08BDB7EE4E
:100C7000007A30EE070AF6EE007A60EE277ADFEDB2
:100C8000226A9FED226ADFED224ADFED235A9FEDB3
:100C9000215A9FED268AA7EEA66ADFED206AE6EECE
:100CA000274AE7EEA56ADFED1F5A9FED1D6AA4EE05
:100CB000A75AE6EEA75ADFED1C6AA5EE276AE5EE15
:100CC000A76AA6EE278AA6EEA77A28EE278AF0EE74
:100CD000478AB0EE670AFFF743FE88EE286A9FED69
:100CE000167ADFED167AA0EE067AF0EE006A37EE9D
:100CF000007AE7EE667AB0EE670A19E7DB0FC93FC4
:100D0000DB0F49400000000008EF1138047F4F3A24
:100D1000461124BDA80A4E3E2EC69D3D613330BF0C
:100D200090B0A6BE2D57014039D119C0ABAA2A3EBA
:100D30006821A233DA0FC93F6821A2B3DA0F494014
:100D400038B510EE105A25F00044B4F17E5F2DED59
:100D5000048BF0EE407A7FD077D8B4F17C5F0ED26E
:100D6000B4F1485F80F092809FED637A30EE077AAD
:100D7000F7EE006AB4EEE67AF1EE10FA62DCB0EE5D
:100D8000670AFFF7B3FCF7EE007A37EEC08AB6EEDB
:100D9000007A28EE078ADFED596A9FED597A9FEDB8
:100DA000596A9FED595ADFED595ADFED598AE8EE3D
:100DB000076A9FED587AA8EE067A9FED576AA6EE6D
:100DC000885AA7EE086A9FED557ADFED556AE5EE81
:100DD000085AA6EE087AE5EE886AE7EE087AE6EEAB
:100DE000888AB0EE480AB0EE679AFFF7B9FD4D4B1E
:100DF0009C4268EE888A3AD810EE103A6FF30B03E3
:100E000006EE903AA6EEE68A70EE267A88EE895AC9
:100E1000C8EE274A9FED447ADFED447AB0EE006ACF
:100E2000A4EEC67A30EE000AF0EE675A90EE057A2C
:100E3000E6EEC65A37EE657A37EEC70A002D01DCBA
:100E4000B1EE400ABDEC048B38BDBDEC048B70EEF6
:100E5000407A87EEA70A38BDBDEC048B9FED320ABD
:100E60009FED337A27EE800AA7EE870A38BD88EE19
:100E7000896A9FED307ADFED2E7AA0EE060AF0EE59
:100E8000006AA0EE267A37EEC70AD7E720EE007A8E
:100E9000DFED1B6A9FED196ADFED1B5A9FED195AB2
:100EA000DFED1A4AA7EE266ABDEC048BE6EE075A80
:100EB000DFED186A9FED186AE7EE056AE5EE874AEE
:100EC000A6EE876A9FED165ADFED145ADFED106A21
:100ED000A4EE875AE6EE075AE5EE076AB7EE006A17
:100EE000A5EE876A26EE877AC7EE066AE0EE267AD6
:100EF000B0EE670A38BD00BFCAF24971047F4F3AAD
:100F000008EF11382EC69D3D461124BDA80A4E3E5D
:100F1000ABAA2A3E613330BF2D57014039D119C0E9
:100F200090B0A6BE9999793F2EBD3BB3DB0F493FE8
:100F3000DB0FC93F2EBD3B3310B582B0CDED010AAA
:100F4000019B23F00042B2F1FF4FF0EE407A30D81F
:100F500010EE100A20F00041B1F1FF4F29D8B3F193
:100F60007E5F42D09C1704F0020444EAD07431B38F
:100F70007AB3B2F1FF4F40D0B1F1FF4F29D0891AB7
:100F8000B1F1F45F4FEAE15234DA002B42DA3C323D
:100F900040DA9FED340A012C4ED0022C43D064B1CC
:100FA0009FED317ADFED317A30EE070A30EE670AD5
:100FB00003E09DED017A37EE270A02B010BD022C46
:100FC00010D09FED2B7A032C08BFB0EE470A02B079
:100FD00010BD9FED280ADFED287A0028A8BFB0EEEB
:100FE000670AEAE79FED210AE7E702B0BDE8104093
:100FF00000F078B99FED200ACDE7B1F1FF4F04F181
:10100000FF3420D0022C26D81C4B03EB840393ED35
:10101000030AD2E79DED017A87EE870AFFF766FBA8
:1010200000F060F9B7E79FED107ADFED107A30EE4F
:10103000070A37EEC00AC0E710EE103A03F100438A
:1010400000EE103AB9E7022C08D80C4B03EB8403EE
:1010500093ED000AB1E79FED030AAEE79FED080AA2
:10106000ABE700BF000000002EBDBB33DB0F4940E3
:10107000DB0F49C0DB0FC9BFDB0FC93FD8690108CF
:10108000DB0F493F70B510EE103A884A23F0004458
:10109000944286B0054671D9854A94421E4624D8AA
:1010A00023F00042002BDFED837A834922F00F0208
:1010B000B0EE407A40F3E0808A4270EE677A09BF72
:1010C0009FED7E7ADFED7E6ADFED7E6A77EEC77A8E
:1010D00037EEE67A77EEC77A80ED007A77EEE67A39
:1010E000C0ED017A012006B070BD774A944252D912
:1010F000B4F1FF4F48D2E215863AA4EBC25307EE93
:10110000903ABDEEE77ADFED716AB8EEC77A77EE16
:10111000C77A8DED037A67EEA67ABDEEE77AB8EE70
:10112000C77A77EEC77A8DED047A67EEA67AF5EE88
:10113000407AF1EE10FACDED057A40F09880B5EEE8
:10114000407AF1EE10FA0CBF0123022360490191AD
:101150000221009103A8294600F094F9002EC2DA7A
:1011600095ED007AD5ED017AB1EE477AF1EE677A26
:1011700085ED007AC5ED017A4042B4E7002285EDA5
:10118000000A42600020AEE770EE407AC0ED017ABE
:10119000C0ED007AF6E7FFF7A9FA9FED4E7A9FEDD2
:1011A000456AF6EE007AE0EE077A9FED457AFDEEAD
:1011B000E77A17EE900AF8EEE76A1F28A6EEC60A4D
:1011C00066EE877AB1EE666A20DC434A411E26F05D
:1011D000004352F8212023F0FF03934216D030EE53
:1011E000677A30EE470A002E30EE670A85ED007A06
:1011F00085ED010ABFF677AFB1EE477AB1EE400A4E
:1012000085ED007A85ED010A40426CE730EE677AA1
:10121000E21517EE103AC3F3C753C3EBD453082BB0
:10122000DFDD9FED267A9FED275AF0EE405AE6EE7D
:10123000075A70EE657AE6EE077AD6EE857A35EED5
:10124000E77A17EE103AC3F3C753D21A192A10DD02
:101250009FED227A9FED225AB0EE650AA6EE070AAC
:1012600075EEC07AE6EE077AD6EE857AB7E7032305
:101270006CE7B0EE650AB4E78A4270EE277A09BFE0
:101280009FED0E7ADFED0E6ADFED0E6A77EE877A5C
:1012900037EEA67A77EEC77A80ED007A77EEA67AF7
:1012A000C0ED017A4FF0FF301DE700BFD80F493F76
:1012B000E3CB1640800FC93FD00FC93F00443537FC
:1012C0004344353708A3852E800F494300008043EF
:1012D000706A010884F9223FF069010800A3852E95
:1012E00032318D2438B510EE105A25F00044B4F197
:1012F000A14FF0EE407A0DD3B4F1FF4F58D8DFED97
:101300004F7A9FED4F7A002DCCBFB0EE470AB0EE7A
:10131000670A38BD4B4B9C4259D8B4F1445F4AD35D
:101320004FF0FF3227EEA76A9FED475A9FED477AAD
:10133000DFED475ADFED474A66EE066A531CA6EE1C
:10134000857AE6EEA54A9FED445ADFED445AA7EEB2
:10135000265AE4EEA65A9FED427ADFED424AA5EE08
:10136000267AE5EEA64A9FED405ADFED405AA7EEF9
:10137000265A9FED3F7AA4EEA67AE5EE265A27EE8E
:10138000267AA5EE867A27EE877A35D0394B03EB9D
:10139000820393ED046AD3ED006A37EE467A002D9E
:1013A00037EE677A36EEC70AB3DAB1EE400A38BDD7
:1013B00030EE000A38BD9FED307A30EE077AF7EE56
:1013C000006AB4EEE67AF1EE10FAA9DD38BDFFF757
:1013D0008DF92A4B9C4212D8A3F5D0039C4223D806
:1013E000F0EE007ABFEE007AA0EE277A002230EE0F
:1013F000270AC7EE007A95E737EEC70A38BD204BBB
:101400009C420BD8F7EE087AB7EE007AA0EE277A66
:10141000022230EE670AC0EE077A83E7BFEE007A59
:10142000C7EE007A03227DE7F7EE007A30EE677AA6
:1014300030EE270A0122C7EE007A73E7DB0FC9BF3F
:10144000DB0FC93FFFFFDF3ED769853C59DA4B3DD3
:1014500021A215BD6BF16EBD356B883D95879DBD95
:101460006E2EBA3D388EE3BD2549123EABAAAA3E88
:10147000CDCC4CBE886D0108CAF24971FFFF973F81
:10148000FFFF1B402DE9F04F2DED048BDBB01C4618
:10149000944603930A46CD4B68991CF1040F53F808
:1014A0002160824604F1FF38C0F24982BCF1030397
:1014B00048BF0CF10403DB10029301334FEAC30E63
:1014C000ACEB0E030593029B16EB0800A3EB08039D
:1014D00016D401309FEDBE7A699C18441EA9002BDA
:1014E000A4BF54F8235007EE905A03F10103ACBF98
:1014F000F8EEE77AF0EE477A8342E1EC017AEED13A
:10150000002EC0F2B182039B1EA901EB830446ADFD
:101510004FEA83094046F7180AEB8301B8F1000F40
:10152000DFEDAB7A09DBA3465346F3EC016A3BEDF2
:10153000017A8B42E6EE877AF7D10130B842E5ECCA
:10154000017A04F10404E9D10DF1280B0BEB8603B9
:10155000CDE9062E043B9FEDA09ADFED9E8A05980B
:1015600004930AEB090446AF0BEB86090096CDF80D
:1015700020C05AAB03EB8603002E13ED140A4FEA8A
:10158000860515DD7B195A4660EE097AB0EE407A81
:10159000FDEEE77A73ED016AF8EEE77ABB42A7EE5B
:1015A000E87A37EEA60ABDEEC77AA2EC017AEBD153
:1015B000019000F085FAF4EE007AB0EE408A20EE59
:1015C000270A00F0EFFAF2EE007AA0EE678A01989F
:1015D0000028FDEEC89AF8EEE97A38EE678A6CDDED
:1015E00006F1FF3EC0F108035BF82E2042FA03FC2F
:1015F0000CFA03F3D21AC0F1070119EE903A4BF836
:101600002E200A416344002A09EE903A00F3F0804C
:10161000B5EE408AF1EE10FA40F09D80009B9E42AC
:101620000ADD5D44002355F8041D4D4543EA0103DE
:10163000F9D1002B40F0F280009B013B5BF8233096
:10164000002B40F0E780049B012153F8042D013169
:10165000002AFAD0731C31449C46029D039A05EB84
:10166000030E0EF1804E699D32440EF1FF3E07EBF2
:1016700083061EAB05EB8E0E03EB8205DEED017AD1
:10168000F8EEE77AB8F1000F0EF1040EE5EC017AFE
:10169000DFED4F7A09DB2A465346F3EC016A32ED5F
:1016A000017AA342E6EE877AF7D10CF1010C61458D
:1016B000E6EC017AE2DA0E465BE740F08F80731EBB
:1016C0005BF82320D211002AA2DD19EE903A002EF9
:1016D00003F1010309EE903A40F3D48159464FF0EB
:1016E000000E51F8043B002B6AD0C3F5807341F81B
:1016F000043C04E00B68C3F1FF0341F8043B0EF126
:10170000010E7645F6DC01239E4600280ADD0128FD
:1017100078D0022806D1711E5BF8213003F03F0C0F
:101720004BF821C0022A7FF473AFB7EE000A73466C
:1017300030EE488A002B3FF46BAF0992019000F025
:10174000BFF938EE408A0198099AB5EE408AF1EE69
:1017500010FA3FF463AF9246DDE9062EDDF820C0B3
:101760000196AEEB0C00B0EE480A009E009200F02D
:10177000A7F9DFED186AB4EEE60AF1EE10FADDE93A
:101780000023F0EE407AC0F250819FED137A059964
:1017900020EE077A0831BDEEC77A0591B8EEC77A18
:1017A0005C1CE7EE667ABDEEC77AFDEEE77A17EECF
:1017B000901A4BF8231017EE103A4BF8243046E0FD
:1017C0000EF1010EB6458CDB9E469EE7A86D010822
:1017D00000000000000080430000803BF6EE007A2D
:1017E000B4EEE78AF1EE10FA80F2988000220FE75B
:1017F0000133002E09EE903A3FF770AF0023012825
:101800009E4686D1711E5BF8213003F07F0C4BF8A9
:1018100021C087E7731C9C4619461EE73346924653
:10182000DDE905125C1EA1F108005BF82410009EA2
:10183000059061B903F18043013B0BEB8303014643
:1018400053F8040D013C08390028F9D0059105989A
:101850000092B7EE000A00F033F9002C009AB0EEC7
:10186000407AC0F20581601C46AD5FED256A8100BB
:101870000BEB800305EB800073ED017AF8EEE77A5D
:101880005B4567EE877A27EE267A60ED017AF3D121
:101890000DF1C8080B1F46A8C718C646A446002568
:1018A0009146002E73DB844ADFED847A38460023AC
:1018B00001E0AB4208DCF2EC016AB0EC017A0133E2
:1018C0009E42E6EE877AF4DA0CF1FF3CBCF1FF3F72
:1018D000EEEC017A05F10105A7F10407E1D1689B5F
:1018E000022B4A4656DC002B2EDC0ED1DFED737A3C
:1018F000414431ED017A414577EE877AF9D153467B
:10190000002B40F0AE80C2ED007A19EE903A03F061
:1019100007005BB0BDEC048BBDE8F08F19EE903A88
:10192000002E03F1010309EE903AC8BF02223FF7EF
:10193000D5AEF7EE007A37EEC88A022268E60023B9
:101940004FF0080E0293BBE59FED5C7A414471EDC8
:10195000017A414537EE277AF9D1DDED327A5346E7
:1019600077EEC77A002B75D182ED007A64B133A986
:101970000123B1EC017A01339C4277EE877AF8DAE1
:1019800053460BB1F1EE677AC2ED017ABDE7DFEDA8
:101990004B7A99E7689B032BB7D1002C7ED008EBDC
:1019A000840595ED007AA0002B46294671ED017A59
:1019B000F0EE476A37EE277A414577EEC77A81ED38
:1019C000007A77EEA67AC1ED017AEFD1012C65D0CD
:1019D00095ED007A08F1040173ED017AF0EE476AA3
:1019E00037EE277A994277EEC77A83ED007A77EE61
:1019F000A67AC3ED017AEFD1031DDFED307A4344BF
:101A000008F1080833ED017A984577EE877AF9D125
:101A10005346DDED326A9DED337A73B9C2ED006A4B
:101A200082ED017AC2ED027A6FE7FDEEC07A1C46C4
:101A300017EE901A4BF8231009E7F1EE666AB1EE43
:101A4000477AF1EE677AC2ED006A82ED017AC2ED63
:101A5000027A5AE7B1EE477A82ED007A002C86D1FD
:101A600090E7F1EE677A4EE7039B4FEA83096BE557
:101A7000689B022B0EDC002B13DC7FF446AFDFEDFE
:101A80000F7A3CE7022A7FF4C3ADF7EE007A37EE17
:101A9000C88ABDE5689B032B7FF437AFDFED077A7B
:101AA000B6E75346DDED327A13B9002313606BE7D6
:101AB0004FF00043136065E7B46D010800000000BB
:101AC00010EE103A33F000411A4627D0B1F1FF4F23
:101AD00021D213F0FF4F22D1DFED2B7A2B4A60EE9B
:101AE000277A904217EE903A33DB4CF2503CC3F326
:101AF000C75160451A46A1F1190116DDDFED247AC0
:101B0000DFED246A002BB0EE677AB8BFF0EE667A9C
:101B100027EE870A704730EE000A704770474CF294
:101B2000503C60454FEAD151E8DC0144FE29E5DC38
:101B3000002915DC11F1160F19DB193122F0FF42D3
:101B400042EAC15207EE902A9FED130A27EE800A5F
:101B50007047DFED127A07EE103A27EE270A70473A
:101B600022F0FF4242EAC15300EE103A7047DFED27
:101B70000B7ADFED0B6A002BB0EE677AB8BFF0EEA0
:101B8000667A27EE870A70470000004CB03CFFFFE2
:101B9000CAF24971CAF249F1000000336042A20D55
:101BA0006042A28D10EE102AC2F3C7537F3B162B62
:101BB00022F0004129DC002B104618DB1A4919419C
:101BC0000A4221D0DFED197A70EE277AF5EEC07A5D
:101BD000F1EE10FA18DD002A04DA4FF4000242FA9E
:101BE00003F3184420EA010300EE103A7047DFEDDA
:101BF0000F7A70EE277AF5EEC07AF1EE10FA03DD77
:101C0000002A08DB9FED0A0A7047B1F1FF4FFBD3B2
:101C100030EE000A7047DFED077A0029BFEE000AB8
:101C200008BFB0EE670A7047FFFF7F00CAF2497134
:101C3000000000000000008081F0004102E000BFD1
:101C400083F0004330B54FEA41044FEA430594EA7C
:101C5000050F08BF90EA020F1FBF54EA000C55EAB7
:101C6000020C7FEA645C7FEA655C00F0E2804FEA88
:101C70005454D4EB5555B8BF6D420CDD2C4480EA6A
:101C8000020281EA030382EA000083EA010180EA9A
:101C9000020281EA0303362D88BF30BD11F0004FE8
:101CA0004FEA01314FF4801C4CEA113102D040421E
:101CB00061EB410113F0004F4FEA03334CEA133359
:101CC00002D0524263EB430394EA050F00F0A78071
:101CD000A4F10104D5F1200E0DDB02FA0EFC22FA6C
:101CE00005F2801841F1000103FA0EF2801843FA60
:101CF00005F359410EE0A5F120050EF1200E012A51
:101D000003FA0EFC28BF4CF0020C43FA05F3C0188E
:101D100051EBE37101F0004507D54FF0000EDCF107
:101D2000000C7EEB00006EEB0101B1F5801F1BD3B0
:101D3000B1F5001F0CD349085FEA30004FEA3C0CB4
:101D400004F101044FEA445212F5800F80F09A80AA
:101D5000BCF1004F08BF5FEA500C50F1000041EBAE
:101D6000045141EA050130BD5FEA4C0C404141EBB2
:101D70000101013C28BFB1F5801FE9D291F0000FAD
:101D800004BF01460020B1FA81F308BF2033A3F15C
:101D90000B03B3F120020CDA0C3208DD02F1140C53
:101DA000C2F10C0201FA0CF021FA02F10CE002F18E
:101DB0001402D8BFC2F1200C01FA02F120FA0CFC87
:101DC000DCBF41EA0C019040E41AA2BF01EB0451D0
:101DD000294330BD6FEA04041F3C1CDA0C340EDCCE
:101DE00004F11404C4F1200220FA04F001FA02F311
:101DF00040EA030021FA04F345EA030130BDC4F1CF
:101E00000C04C4F1200220FA02F001FA04F340EAC3
:101E10000300294630BD21FA04F0294630BD94F074
:101E2000000F83F4801306BF81F480110134013D5B
:101E30004EE77FEA645C18BF7FEA655C29D094EACC
:101E4000050F08BF90EA020F05D054EA000C04BF4A
:101E50001946104630BD91EA030F1EBF0021002035
:101E600030BD5FEA545C05D14000494128BF41F0D4
:101E7000004130BD14F580043CBF01F5801130BD38
:101E800001F0004545F0FE4141F470014FF00000C3
:101E900030BD7FEA645C1ABF194610467FEA655C74
:101EA0001CBF0B46024650EA013406BF52EA033516
:101EB00091EA030F41F4002130BD00BF90F0000F04
:101EC00004BF0021704730B54FF4806404F1320440
:101ED0004FF000054FF0000150E700BF90F0000FF9
:101EE00004BF0021704730B54FF4806404F1320420
:101EF00010F0004548BF40424FF000013EE700BFF0
:101F000042004FEAE2014FEA31014FEA02701FBF7F
:101F100012F07F4393F07F4F81F06051704732F0B1
:101F20007F4208BF704793F07F4F04BF41F4002108
:101F3000704730B54FF4607401F0004521F0004166
:101F40001CE700BF50EA010208BF704730B54FF0F0
:101F500000050AE050EA010208BF704730B511F0F1
:101F6000004502D5404261EB41014FF4806404F129
:101F700032045FEA915C3FF4D8AE4FF003025FEAAF
:101F8000DC0C18BF03325FEADC0C18BF033202EB33
:101F9000DC02C2F1200300FA03FC20FA02F001FA8D
:101FA00003FE40EA0E0021FA02F11444BDE600BF30
:101FB00070B54FF0FF0C4CF4E06C1CEA11541DBFDF
:101FC0001CEA135594EA0C0F95EA0C0F00F0DEF8AA
:101FD0002C4481EA030621EA4C5123EA4C5350EA8F
:101FE000013518BF52EA033541F4801143F48013E0
:101FF00038D0A0FB02CE4FF00005E1FB02E506F071
:102000000042E0FB03E54FF00006E1FB03569CF0C5
:10201000000F18BF4EF0010EA4F1FF04B6F5007FCB
:1020200064F5407404D25FEA4E0E6D4146EB06063D
:1020300042EAC62141EA55514FEAC52040EA5E50C6
:102040004FEACE2EB4F1FD0C88BFBCF5E06F1ED870
:10205000BEF1004F08BF5FEA500E50F1000041EBA7
:10206000045170BD06F0004646EA010140EA020054
:1020700081EA0301B4EB5C04C2BFD4EB0C0541EA76
:10208000045170BD41F480114FF0000E013C00F38B
:10209000AB8014F1360FDEBF002001F0004170BDAF
:1020A000C4F10004203C35DA0C341BDC04F11404C8
:1020B000C4F1200500FA05F320FA04F001FA05F254
:1020C00040EA020001F0004221F0004110EBD37021
:1020D00021FA04F642EB06015EEA430E08BF20EA4D
:1020E000D37070BDC4F10C04C4F1200500FA04F3F0
:1020F00020FA05F001FA04F240EA020001F0004182
:1021000010EBD37041F100015EEA430E08BF20EAF4
:10211000D37070BDC4F1200500FA05F24EEA020E3C
:1021200020FA04F301FA05F243EA020321FA04F06B
:1021300001F0004121FA04F220EA020000EBD37022
:102140005EEA430E08BF20EAD37070BD94F0000F22
:102150000FD101F00046400041EB010111F4801F56
:1021600008BF013CF7D041EA060195F0000F18BF07
:10217000704703F00046520043EB030313F4801F43
:1021800008BF013DF7D043EA0603704794EA0C0FFD
:102190000CEA135518BF95EA0C0F0CD050EA410613
:1021A00018BF52EA4306D1D181EA030101F0004190
:1021B0004FF0000070BD50EA410606BF10461946B8
:1021C00052EA430619D094EA0C0F02D150EA0136C4
:1021D00013D195EA0C0F05D152EA03361CBF104605
:1021E00019460AD181EA030101F0004141F0FE41A4
:1021F00041F470014FF0000070BD41F0FE4141F428
:10220000780170BD70B54FF0FF0C4CF4E06C1CEA27
:1022100011541DBF1CEA135594EA0C0F95EA0C0FDC
:1022200000F0A7F8A4EB050481EA030E52EA033597
:102230004FEA013100F088804FEA03334FF08055B8
:1022400045EA131343EA12634FEA022245EA1115E5
:1022500045EA10654FEA00260EF000419D4208BF96
:10226000964244F1FD0404F5407402D25B084FEA43
:102270003202B61A65EB03055B084FEA32024FF4EF
:1022800080104FF4002CB6EB020E75EB030E22BF4C
:10229000B61A754640EA0C005B084FEA3202B6EB0C
:1022A000020E75EB030E22BFB61A754640EA5C00BB
:1022B0005B084FEA3202B6EB020E75EB030E22BF4B
:1022C000B61A754640EA9C005B084FEA3202B6EB4C
:1022D000020E75EB030E22BFB61A754640EADC000B
:1022E00055EA060E18D04FEA051545EA16754FEA6D
:1022F00006164FEAC30343EA52734FEAC2025FEA8B
:102300001C1CC0D111F4801F0BD141EA00014FF019
:1023100000004FF0004CB6E711F4801F04BF0143EA
:102320000020B4F1FD0C88BFBCF5E06F3FF6AFAE06
:10233000B5EB030C04BFB6EB020C5FEA500C50F196
:10234000000041EB045170BD0EF0004E4EEA113119
:1023500014EB5C04C2BFD4EB0C0541EA045170BD20
:1023600041F480114FF0000E013C90E645EA060E64
:102370008DE60CEA135594EA0C0F08BF95EA0C0F92
:102380003FF43BAF94EA0C0F0AD150EA01347FF4DA
:1023900034AF95EA0C0F7FF425AF104619462CE7B1
:1023A00095EA0C0F06D152EA03353FF4FDAE104614
:1023B000194622E750EA410618BF52EA43067FF465
:1023C000C5AE50EA41047FF40DAF52EA43057FF4F5
:1023D000EBAE12E74FF0FF3C06E000BF4FF0010C00
:1023E00002E000BF4FF0010C4DF804CD4FEA410C64
:1023F0007FEA6C5C4FEA430C18BF7FEA6C5C1BD031
:1024000001B050EA410C0CBF52EA430C91EA030FB1
:1024100002BF90EA020F0020704710F1000F91EA0E
:10242000030F58BF994208BF90422CBFD8176FEADC
:10243000E37040F0010070474FEA410C7FEA6C5CAA
:1024400002D150EA013C07D14FEA430C7FEA6C5CB1
:10245000D6D152EA033CD3D05DF8040B704700BFDD
:102460008446104662468C461946634600E000BF2B
:1024700001B5FFF7B7FF002848BF10F1000F01BDFD
:102480004DF808EDFFF7F4FF0CBF012000205DF8C8
:1024900008FB00BF4DF808EDFFF7EAFF34BF01204D
:1024A00000205DF808FB00BF4DF808EDFFF7E0FFE6
:1024B00094BF012000205DF808FB00BF4DF808ED37
:1024C000FFF7CEFF94BF012000205DF808FB00BF9E
:1024D0004DF808EDFFF7C4FF34BF012000205DF880
:1024E00008FB00BF4FEA410C7FEA6C5C02D150EA66
:1024F000013C0AD14FEA430C7FEA6C5C02D152EAFC
:10250000033C02D14FF0000070474FF001007047CC
:102510004FEA4102B2F1E04324BFB3F5001CDCF105
:10252000FE5C0DD901F0004C4FEAC0024CEA50703D
:10253000B2F1004F40EB830008BF20F0010070476C
:1025400011F0804F21D113F13872BCBF01F000406F
:10255000704741F480114FEA5252C2F11802C2F1A1
:10256000200C10FA0CF320FA02F018BF40F0010022
:102570004FEAC1234FEAD32303FA0CFC40EA0C00D4
:1025800023FA02F34FEA4303CCE77FEA625307D111
:1025900050EA01331EBF4FF0FE4040F44000704748
:1025A00001F0004040F0FE4040F40000704700BFE2
:1025B00053B94AB9002908BF00281CBF4FF0FF31AA
:1025C0004FF0FF3000F00CB8ADF1080C6DE904CE0F
:1025D00014F03AF8DDF804E0DDE9022304B07047B6
:1025E000704700BF931E222B10B50C460CD80A2A48
:1025F00003D000F033F8204610BD0028F9DA2D236F
:1026000001F8013B4042F4E700230B70184610BD6F
:10261000931E222B10B50C460CD80A2A03D000F0CA
:102620001DF8204610BD0028F9DA2D2301F8013BE2
:102630004042F4E700230B70184610BD024B0146E0
:102640001868FDF7CDBE00BF00000020024B014618
:102650001868FDF743BE00BF00000020F0B5254F0D
:10266000A2F1020E164605460C460FCF8BB0EC4683
:10267000ACE80F000FCFACE80F0097E803004CF870
:10268000040BBEF1220F8CF800102ED804F1FF3E8F
:1026900070464FF0000CB5FBF6F206FB12532833E0
:1026A0006B44614613F828CC00F801CF2B469E42BC
:1026B00001F1010C1546EED9002304F80C3089B164
:1026C000A44472461EF8010F1CF8015D8EF80050FC
:1026D000A4EB0E030232013B121B0B449A428CF80E
:1026E0000000EEDB20460BB0F0BD0023184623703F
:1026F0000BB0F0BD00780108FFF7B0BF70B59AB01D
:1027000013460A4E0A466FF00041029105910849AE
:102710000391044600253068199569460094049495
:1027200000F01EFC009B1D701AB070BD0000002060
:102730000802FFFF10B59AB00024009104916FF0D9
:10274000004102910591054903916946199400F0F1
:1027500007FC009B1C701AB010BD00BF0802FFFFF1
:10276000830710B5044610D10268A2F1013323EAB1
:10277000020313F0803F08D150F8042FA2F1013377
:1027800023EA020313F0803FF6D003781BB110F860
:10279000013F002BFBD100F093F9204610BD00BF94
:1027A00071B1034600EB010C01E0634506D01A4607
:1027B000013311780029F8D1101A7047181A7047A0
:1027C00008467047014B1868704700BF00000020A2
:1027D00000000000000000000000000000000000F9
:1027E00002780B78012A28BF9A4240F0D8806DE920
:1027F000044540EA0104CDE902676FF0000C4FEA9E
:1028000044721AB380EA010414F0070F6BD100F090
:10281000070420F0070004F0030521F007014FEA48
:10282000C505F0E8042314F0040FF1E804670CFA7E
:1028300005F462EA040266EA04060BD063EA0403C4
:10284000624667EA0407664604E000BFF0E8042336
:10285000F1E8046782FA4CF582EA0604A4FA8CF4E3
:102860006CBB83FA4CF583EA0705A5FA8CF595B99C
:1028700050E9022351E9026782FA4CF582EA060424
:10288000A4FA8CF483FA4CF583EA0705A5FA8CF5D3
:102890002543DBD09CB92DBAB5FA85F424F00704A2
:1028A00027FA04F1DDE9026723FA04F303F0FF00DD
:1028B00001F0FF01FDE80445A0EB0100704724BAD8
:1028C000B4FA84F424F0070426FA04F1DDE902677F
:1028D00022FA04F202F0FF0001F0FF01FDE80445D6
:1028E000A0EB0100704714F0030F3CD110F003047B
:1028F00028D150F8082B51F8083B82FA4CF582EAAF
:102900000305A5FA8CF55DB950F8042C51F8043C88
:1029100082FA4CF582EA0305A5FA8CF5002DE8D081
:102920002DBAB5FA85F424F0070423FA04F122FA4B
:1029300004F202F0FF0001F0FF01FDE80445A0EB06
:10294000010070474FEAC40420F0030050F8082B40
:1029500021F0030151F8083B0CFA04F462EA040286
:1029600063EA0403C9E710F003041DD0A1EB0401DE
:1029700020F00300E40750F8042B06D012D28B7825
:102980005FFAA2F4E41A06D12BB1CB785FFAB2F465
:10299000E41A00D133B920465DF8104B7047A2EB22
:1029A0000300704701F1040150F8042BCC0721F01B
:1029B000030151F8043B48D824D222F07F4482FA24
:1029C0004CF594EA1325A5FA8CF50AD165B951F8AE
:1029D000043B84EA0204B4EB036F0ED150F8042BDD
:1029E000EBE74FEA132355E035F07F454DD10878EA
:1029F000FDE80445C0F1000070474FEA126203F0A1
:102A0000FF0347E002EA1C4482FA4CF594EA1345BE
:102A1000A5FA8CF50AD165B951F8043B84EA0204A1
:102A2000B4EB034F0CD150F8042BEBE74FEA134300
:102A300030E015EA1C4528D10B884FEA124229E004
:102A40004FEA124203EA1C4324E002F0FF0482FA38
:102A50004CF594EA1365A5FA8CF50AD165B951F8DD
:102A6000043B84EA0204B4EB032F09D150F8042B91
:102A7000EBE74FEA13630DE015F0FF0F05D10B688C
:102A80004FEA122223F07F4304E04FF00000FDE8FC
:102A90000445704712BA1BBA82FA4CF482EA030466
:102AA000A4FA8CF5B5FA85F402FA04F203FA04F3F9
:102AB0004FEA1260FDE80445A0EB1360704700BFC9
:102AC00080EA0102844612F0030F4FD111F0030F88
:102AD00032D14DF8044D11F0040F51F8043B0BD0E6
:102AE000A3F101329A4312F0803F04BF4CF8043B3B
:102AF00051F8043B16D100BF51F8044BA3F1013249
:102B00009A4312F0803FA4F101320BD14CF8043B00
:102B1000A24312F0803F04BF51F8043B4CF8044B31
:102B2000EAD023460CF8013B13F0FF0F4FEA3323A2
:102B3000F8D15DF8044B704711F0010F06D011F881
:102B4000012B0CF8012B002A08BF704711F0020F6F
:102B5000BFD031F8022B12F0FF0F16BF2CF8022B5A
:102B60008CF8002012F47F4FB3D1704711F8012B7D
:102B70000CF8012B002AF9D1704700BF844641EAC6
:102B8000000313F003036DD1403A41D351F8043BE5
:102B900040F8043B51F8043B40F8043B51F8043B37
:102BA00040F8043B51F8043B40F8043B51F8043B27
:102BB00040F8043B51F8043B40F8043B51F8043B17
:102BC00040F8043B51F8043B40F8043B51F8043B07
:102BD00040F8043B51F8043B40F8043B51F8043BF7
:102BE00040F8043B51F8043B40F8043B51F8043BE7
:102BF00040F8043B51F8043B40F8043B51F8043BD7
:102C000040F8043B51F8043B40F8043B403ABDD245
:102C1000303211D351F8043B40F8043B51F8043BE7
:102C200040F8043B51F8043B40F8043B51F8043BA6
:102C300040F8043B103AEDD20C3205D351F8043B76
:102C400040F8043B043AF9D2043208D0D2071CBF42
:102C500011F8013B00F8013B01D30B88038060466B
:102C6000704700BF082A13D38B078DD010F00303E1
:102C70008AD0C3F10403D21ADB071CBF11F8013B51
:102C800000F8013B80D331F8023B20F8023B7BE7A0
:102C9000043AD9D3013A11F8013B00F8013BF9D2CB
:102CA0000B7803704B7843708B7883706046704765
:102CB0000000000000000000000000000000000014
:102CC00030B490F800F020F007016FF0000C10F025
:102CD000070491F820F040F048804FF000046FF0B6
:102CE0000700D1E9002391F840F000F1080082FAD2
:102CF0004CF2A4FA8CF283FA4CF3A2FA8CF34BBB9D
:102D0000D1E9022382FA4CF200F10800A4FA8CF215
:102D100083FA4CF3A2FA8CF3E3B9D1E9042382FAE3
:102D20004CF200F10800A4FA8CF283FA4CF3A2FAF8
:102D30008CF37BB9D1E9062301F1200182FA4CF230
:102D400000F10800A4FA8CF283FA4CF3A2FA8CF397
:102D5000002BC6D0002A04BF04301A4612BAB2FAB9
:102D600082F200EBD20030BC7047D1E9002304F0BE
:102D70000305C4F100004FEAC50514F0040F91F8F3
:102D800040F00CFA05F562EA05021CBF63EA050390
:102D900062464FF00004AAE72DE9F0478F681D4610
:102DA000AF420B680C46164636D8B1F90CC01CF47D
:102DB000906F0ED13D46184631462A4600F0C0FBC2
:102DC000A368DF1B2368A7602B4400202360BDE8B5
:102DD000F0874A69096902EB42025F1A02EBD2727C
:102DE0006B1C52103B44934292BF914699461A463F
:102DF0001CF4806F804611D01146FDF7F1FA82462F
:102E000000B321693A46FFF7B9FEA38923F4906322
:102E100043F08003A38105E02F46CCE700F060FC7F
:102E2000824658B10AEB0703A9EB0707A760C4F86D
:102E300010A0C4F8149023602F46BCE721694046D7
:102E4000FDF74CFAA3890C2243F04003C8F8002098
:102E50004FF0FF30A381BAE72DE9F04F9368176870
:102E600083B09246002B74D04FF0000B8B680A6839
:102E700081460C465D4645E0B4F90C3013F4906F82
:102E80002CD0D4E90401161A01EB410202EBD272F4
:102E9000711C52102944914292BF904688460A46BE
:102EA0005B0539D511464846FDF79AFA019000288E
:102EB0003DD032462169FFF761FEA289019B22F4D1
:102EC000906242F08002A2819819A8EB0606A660E3
:102ED000C4F8148023612060A8462E463246594625
:102EE00000F02EFBDAF80810A3682268A3EB0803B1
:102EF0003244491BA3602260CAF8081049B3D7E9DD
:102F000000B5083798461046002DF8D09D421E4661
:102F1000B2D2A8462E46E1E70146484600F0E0FB63
:102F200003460028D0D121694846FDF7D7F9A38987
:102F30000C2243F04003C9F800204FF0FF30A3817A
:102F400000220023CAF80820CAF8043003B0BDE804
:102F5000F08F00200023CAF8043003B0BDE8F08FE2
:102F60002DE9F04F1C468B891D069DB08846814691
:102F7000934603D50B69002B00F0F18000230993E1
:102F800043F22003ADF829309BF800307D4D0394C7
:102F90000126002B73D0DA4603E01AF8013F002B1C
:102FA00075D0252BF9D1BAEB0B0473D19AF8002018
:102FB000002A64D000234FF0FF32CDE905230AF147
:102FC000010A049307938DF853301A9305E0049A8D
:102FD00006FA03F31A430492A2465446052214F853
:102FE000011B284600F02CFBA346431B0028EED112
:102FF000049BD80644BF20228DF8532019079AF865
:10300000001044BF2B228DF853202A2950D1039A57
:1030100011680432002903927CDB07919AF80110B1
:103020002E295BD0584C0322204600F009FB38B112
:10303000049B001B4022824013430BF1010B0493BD
:103040001BF8011B51488DF82810062200F0F8FAF1
:10305000002865D04E4B002B55D003AA00924D4B53
:10306000424604A94846AFF3008007467A1C06D0C2
:10307000099B3B4409939BF80030002B8BD1B8F897
:103080000C305B067AD409981DB0BDE8F08FBAEB1E
:103090000B04F4D023465A4641464846FFF77CFECF
:1030A0000130ECD0099B9AF80020234409937FE774
:1030B000A1F13002092A88BFD346B1D8079B00E0AE
:1030C0000134217803EB830302EB4303A1F13002C7
:1030D000092AF5D92E290793A346A3D19BF80110FD
:1030E0002A2927D1039B9BF802101A680592043302
:1030F000002A0BF102000393B8BF4FF0FF33834661
:10310000B8BF05938EE7039B073323F0070308330B
:103110000393ADE7494243F00203079104937DE72F
:1031200003AA00921B4B424604A9484600F0C6F889
:1031300007469BE7A1F130020023092A05930BF112
:10314000010B3FF66FAF1BF8011F03EB830302EB8C
:103150004303A1F13002092AF5D9059362E7402122
:10316000FDF73EF9C8F80000C8F8100018B1402378
:10317000C8F8143002E70C23C9F800304FF0FF30D4
:1031800082E700BF28780108307801083478010808
:1031900000000000992D00082DE9F84F92461F46C7
:1031A0000A698B68DDF828909A42B8BF1A46CAF8B7
:1031B000002091F843300C46064613B10132CAF89C
:1031C0000020226891065FD5DAF800300233CAF891
:1031D0000030226812F0060F11461DD1E1689942B5
:1031E000D8BF114618DD4FF0000804F1190B05E0B7
:1031F000E568DAF80030ED1A45450CDD01235A4642
:1032000039463046C847013008F10108F0D14FF087
:10321000FF30BDE8F88F216894F84330003B18BFB9
:1032200001238A060AD5E1185A1C302081F8430090
:10323000224494F8451082F84310023304F143020B
:1032400039463046C8470130E1D02368DAF80050EB
:10325000216903F00603042BD4E902201BD08A4223
:1032600020DD4FF00008521A90441A34002501E086
:10327000454517DA0123224639463046C847013012
:1032800005F10105F4D1C2E712F0060F0DD0003BA5
:1032900018BF0123D2E7401B8A4220EAE078E2DC33
:1032A0000028E2DC0020BDE8F88FE168DAF80030A1
:1032B0009942D8BF114696DCAEE700BF2DE9F04732
:1032C000174684B00A7E0C9D0C460646984601F1CE
:1032D000430C002A35D0A2F15803D9B2202969D86D
:1032E000202B67D8DFE813F0E60066006600660072
:1032F0006600660066006600660066006600AC0058
:103300007000660066006600660070006600660079
:103310006600660021008300C60066006600B600F5
:103320006600830066006600EC002B682268616915
:10333000181D286010061B6802D4520600F1E080B8
:1033400019600023E1462361CDF800803B4603AAC3
:1033500021463046FFF720FF013020D023694A463E
:1033600039463046C047013019D02368E068DDF89F
:103370000C909B0718D5484516DD002504F1190A65
:1033800004E0E068A0EB0903AB420DDD01235246E7
:1033900039463046C047013005F10105F1D14FF003
:1033A000FF3004B0BDE8F0874845B8BF484604B0D8
:1033B000BDE8F08784F84220012004F1420900238F
:1033C000206184F84330BFE72A682368111D18067E
:1033D000296002D4590600F1958010680146002842
:1033E0006268C0F2938054484FF00A0E15E02068DE
:1033F0002B6810F0800F53F8041B02D1400648BF21
:1034000089B26F2A4C482B6014BF4FF00A0E4FF060
:10341000080E0023626884F84330002AA26051DB62
:10342000236823F00403236000294BD1002A7BD1B9
:10343000E146BEF1080F56D0ACEB0903236183E7E8
:103440002B681A6804332B6004F1420984F8422087
:103450000120B4E72B686268191D2960D3F8009039
:103460000021484600F0ECF8002863D0A0EB0900EA
:103470006060A4E7236843F02003236078222F488C
:1034800084F845202A6813F0800F52F8041B03D1FA
:1034900013F0400F18BF89B22A60DA0744BF43F027
:1034A0002003236019B9236823F0200323604FF021
:1034B000100EAEE7582384F845301F482368E1E733
:1034C0002368DBE77546E146B1FBF5F305FB131A0C
:1034D0000A46AA4210F80A1009F8011D1946F3D24B
:1034E000BEF1080FA8D12368DD07A5D5626823695E
:1034F0009A42A1DC302309F8013C09F1FF399BE72E
:1035000019801EE7B2F90010084668E72D20002A4E
:10351000A26084F8430002DB23F0040323600A2541
:1035200005484942AE46CEE7037884F8423004F1BC
:1035300042097EE7606842E73C780108507801085C
:1035400088420ED98B1883420BD900EB020C002A5B
:103550006ED0624613F801CD02F801CD9942F9D13F
:1035600070470F2A0FD8034602F1FF3C002A5FD0B4
:103570000CF1010C013B8C4411F8012B03F8012FD5
:103580006145F9D1704740EA01039B0751D1A2F18F
:10359000100370B501F1200C23F00F0501F1100E9E
:1035A00000F11004AC441B095EF8105C44F8105C98
:1035B0005EF80C5C44F80C5C5EF8085C44F8085C4F
:1035C0005EF8045C44F8045C0EF1100EE64504F16C
:1035D0001004E9D1013312F00C0F01EB031102F0DA
:1035E0000F0400EB031328D0043C24F003064FEA39
:1035F000940C1E441C1F8E465EF8045B44F8045F66
:10360000B442F9D10CF1010402F0030203EB84038C
:1036100001EB840102F1FF3C4AB10CF1010C013BCA
:103620008C4411F8012B03F8012F6145F9D170BDCD
:10363000704702F1FF3C03469AE72246EAE700BFE3
:1036400001F0FF01102A2BDB10F0070F08D010F853
:10365000013B013A8B422DD010F0070F42B3F6D157
:10366000F0B441EA012141EA014122F007047FF070
:1036700000070023F0E80256083C85EA010586EAC7
:10368000010685FA47F5A3FA87F586FA47F6A5FA03
:1036900087F68EB9EED1F0BC01F0FF0102F007020F
:1036A00032B110F8013B013A83EA010313B1F8D1BA
:1036B0000020704701387047002D06BF354603389B
:1036C000073815F0010F07D1013015F4807F02BFD4
:1036D000013015F4C03F0130F0BC0138704700BF25
:1036E0002DE9F041144641B30AB306460D4600F0F9
:1036F00029F88442074602D8B4EB500F13D821466C
:103700003046FCF76DFE804650B1BC422246294649
:1037100028BF3A46FFF732FA29463046FCF7DEFD6D
:103720004046BDE8F081A8464046BDE8F081A0468D
:10373000FCF7D4FD4046BDE8F081BDE8F0411146FC
:10374000FCF74EBE51F8043C181F002BBCBF0B58B1
:10375000C018704710B5054C237833B9044B13B12A
:103760000448AFF300800123237010BDC006002081
:1037700000000000E868010808B5034B1BB10349CD
:103780000348AFF3008008BD00000000C40600201D
:10379000E868010808B50B4B1A6842F400721A6019
:1037A0001A6842F480621A601A6842F480721A60E1
:1037B000032000F0F7FD0F2009F070FB09F044FB37
:1037C000002008BD003C0240034A1168034B1B78EF
:1037D0000B441360704700BFDC060020500000203F
:1037E000014B1868704700BFDC06002038B504465E
:1037F000FFF7F6FF0546B4F1FF3F02D0044B1B78FC
:103800001C44FFF7EDFF401BA042FAD338BD00BFB8
:10381000500000204A4B5A6822F440325A605A68DD
:1038200041680A435A600268536823F48073536006
:1038300002685368016943EA0123536002685368D0
:1038400023F0407353600268536881680B435360F0
:103850000268936823F40063936002689368C16808
:103860000B439360826A374B9A4257D00268936841
:1038700023F07063936002689368816A0B439360DE
:103880000268936823F04053936002689368C16AAA
:103890000B4393600268936823F00203936002680D
:1038A0009368017E43EA4103936090F82030002B37
:1038B0003FD00268536843F4006353600268536862
:1038C00023F46043536001684B68426A013A43EA5B
:1038D00042334B600268D36A23F47003D3620168F9
:1038E000CB6AC269013A43EA0253CB620268936829
:1038F00023F4007393600268936890F8301043EAF1
:10390000412393600268936823F4806393600268A4
:103910009368416943EA8123936070470268936822
:1039200023F0706393600268936823F040539360C0
:10393000B0E70268536823F400635360CAE700BF2E
:10394000002301400100000F38B310B50446036C9A
:1039500043B1236C13F0100F0BD00120002384F827
:103960003C3010BD08F04EFC0023636484F83C300A
:10397000EFE7236C23F4885323F0020343F00203A0
:1039800023642046FFF746FF00206064236C23F089
:10399000030343F001032364E0E7012070470000C4
:1039A00030B482B00022019290F83C20012A00F04D
:1039B000B6800346012280F83C200A68092A40D9D3
:1039C0000468E06892B202EB42021E3A4FF0070C24
:1039D0000CFA02F220EA0202E2601C68E0680A883F
:1039E00002EB42021E3A8D6805FA02F20243E260DF
:1039F0004A68062A3CD81C68606B02EB8202053AD2
:103A00004FF01F0C0CFA02F220EA020262631C68FB
:103A1000606B4A6802EB8202053AB1F800C00CFA0A
:103A200002F20243626318683E4A904250D018681E
:103A30003C4A904255D0002083F83C0002B030BC94
:103A400070470468206992B202EB42024FF0070C03
:103A50000CFA02F220EA020222611C6820690A883C
:103A600002EB42028D6805FA02F202432261BFE7CF
:103A70000C2A16D81D68286B02EB8202233A1F24F9
:103A800004FA02F220EA02022A631D68286B4A68DF
:103A900002EB8202233A0C8804FA02F202432A6300
:103AA000C1E71D68E86A02EB8202413A1F2404FA6A
:103AB00002F220EA0202EA621D68E86A4A6802EB42
:103AC0008202413A0C8804FA02F20243EA62AAE74F
:103AD0000A68122AABD11448426842F4800242605C
:103AE000A5E70A68103A012AA5D80F48426842F4AF
:103AF000000242600A68102A9DD10C4A12680C49E3
:103B0000A1FB0212920C02EB82025200019202E02F
:103B1000019A013A0192019A002AF9D18BE7022019
:103B20008CE700BF0020014000230140E40000209A
:103B300083DE1B43002800F0A18038B5044690F8CE
:103B40002030D3B12268136843F001031360FFF7FC
:103B500047FE054623685A6812F0010F10D1FFF79F
:103B60003FFE401B0A28F5D9636A43F400336362C1
:103B7000052384F82030012038BD08F09FFBE1E7E1
:103B80001A6822F002021A60FFF72AFE054623682F
:103B90005A6812F0020F0DD0FFF722FE401B0A28D0
:103BA000F5D9636A43F400336362052384F8203057
:103BB0000120E1E7227E012A3DD01A6822F080022E
:103BC0001A60637E012B3BD02268136823F0400308
:103BD0001360A37E012B39D02268136823F02003E1
:103BE0001360E37E012B37D02268136843F0100383
:103BF0001360237F012B35D02268136823F008035C
:103C00001360637F012B33D02268136823F0040311
:103C10001360A368E2681343226913436269134384
:103C20006268013A21681343CB610020606201237E
:103C300084F82030A0E71A6842F080021A60C0E7DA
:103C40002268136843F040031360C2E722681368D8
:103C500043F020031360C4E72268136823F01003C5
:103C60001360C6E72268136843F008031360C8E7CF
:103C70002268136843F004031360CAE70120704709
:103C800090F82030013BDBB2012B05D9436A43F4A5
:103C9000802343620120704730B5464BD3F80022A1
:103CA00042F00102C3F80022D3F8002222F47C5231
:103CB000C3F80022D3F80022486A42EA0022C3F87F
:103CC00000224A6902F01F02012000FA02F2D3F832
:103CD0001C026FEA020C20EA0200C3F81C02CB6946
:103CE000C3B9344BD3F80C020CEA0000C3F80C0241
:103CF0008C884869CD6844EA0544483043F8304030
:103D00008C68088840EA04404C6904F1480E03EBD3
:103D1000CE035860CB69012B1ED08B69002B33D1A9
:103D20002448D0F804320CEA0303C0F804320B69CB
:103D30008BBB2048D0F814320CEA0303C0F81432CD
:103D40000B6A012B2ED01B4AD2F8003223F001035C
:103D5000C2F80032002030BD164BD3F80C021043DD
:103D6000C3F80C028C8848690D6844EA0544483061
:103D700043F8304088894C698D6840EA05404834F2
:103D800003EBC4035860C8E70A48D0F80432134371
:103D9000C0F80432CBE70748D0F814321343C0F818
:103DA0001432CDE70349D1F81C321343C1F81C3259
:103DB000C9E700BF0064004070B5044690F8205089
:103DC000EDB2012D06D0436A43F40023436201257E
:103DD000284670BD022380F820300268136823F063
:103DE00001031360FFF7FCFC064623685B6813F0D1
:103DF000010F0CD0FFF7F4FC831B0A2BF5D9636A83
:103E000043F400336362052384F82030E0E70025A3
:103E10006562DDE730B590F820C00468A4680CF155
:103E2000FF3C5FFA8CFCBCF1010F6BD814F0E05F33
:103E300062D0C4F3016CBCF1020F05D9436A43F4AC
:103E400000034362012062E0012404FA0CF41C60C8
:103E50008B68002B3DD10D68CB68046843EA45555B
:103E60000CF118031B01E55003680C690CF1180EE6
:103E700003EB0E135C600B7D012B35D0D179937968
:103E80001B0443EA0163517943EA01231479016871
:103E9000234301EB0C11C1F88C31D17893781B04CA
:103EA00043EA0163517843EA0123117802680B4326
:103EB00002EB0C12C2F8883102680CF1180C4FEAC0
:103EC0000C1C52F80C3043F0010342F80C30002077
:103ED0001DE04C6843EAC403CC6823430CF118048A
:103EE000240105682B51BFE7036803EB0E135968E3
:103EF00041F480715960C1E7436A43F4001343629F
:103F0000012004E0436A43F480234362012030BD72
:103F100090F82030013BDBB2012B01D90020704723
:103F20000368986810F0806000D001209A6812F051
:103F3000006F00D001309B6813F0805FEFD001303C
:103F4000704790F820C00CF1FF3C5FFA8CFCBCF18C
:103F5000010F00F2958030B451B90468E46814F0A0
:103F6000030F10D1436A43F400134362012077E04A
:103F70000468246914F0030F05D1436A43F4001365
:103F8000436201206CE001F11B04240105682C59F7
:103F900004F004049460002C64D101F11B0424019A
:103FA00005682C59640D1460046801F11B0C4FEA7C
:103FB0000C1C54F80C4004F00204D46004686444FF
:103FC000646804F00F041461046864446468C4F312
:103FD00007249461046864446468240C5461026892
:103FE00002EB0112D2F8B8211A70026802EB01123A
:103FF000D2F8B821C2F307225A70026802EB01120C
:10400000D2F8B821C2F307429A70026802EB01129B
:10401000D2F8B821120EDA70026802EB0112D2F85F
:10402000BC211A71026802EB0112D2F8BC21C2F362
:1040300007225A71026802EB0112D2F8BC21C2F3C6
:1040400007429A71026802EB0112D2F8BC21120EEB
:10405000DA7179B90268D36843F02003D360002095
:1040600030BC704701F11B04240105682C59E40899
:10407000546099E70268136943F020031361EEE787
:10408000436A43F4802343620120704790F8203054
:10409000013BDBB2012B01D90020704721B9036835
:1040A000D86800F0030070470368186900F0030047
:1040B000704790F82030013BDBB2012B05D9436AF1
:1040C00043F48023436201207047026853690B4325
:1040D00053610020704770477047704770477047C2
:1040E0007047704770477047704770472DE9F84F29
:1040F000054603685C69D3F804809F68D3F80CA078
:10410000D3F81090D3F818B014F001063BD017F094
:10411000010616D001229A6017F0020F08D117F09D
:10412000040F0CD117F0080606D04FF4805608E0B3
:10413000FFF7D1FF002604E0FFF7D0FF01E04FF4C6
:10414000006617F4807F0DD02B684FF480729A6060
:1041500017F4007F40F0968017F4806F00F096808F
:1041600046F4005617F4803F0DD02B684FF4803290
:104170009A6017F4003F40F0938017F4802F00F00E
:10418000938046F4004614F0080F07D01AF0100F81
:1041900004D046F400762B681022DA6014F0040F85
:1041A00003D01AF0080F40F0898014F0020F05D0F8
:1041B0002B68DB6813F0030F40F0878014F0400F8A
:1041C00007D019F0100F04D046F480662B68102237
:1041D0001A6114F0200F02D019F0080F79D114F0F1
:1041E000100F04D02B681B6913F0030F78D114F45F
:1041F000003F02D018F0100F76D114F4803F02D0A7
:1042000018F0080F77D114F4004F37D018F0040FCE
:1042100031D014F4807F04D01BF0010F01D046F0A0
:10422000010614F4007F04D01BF0020F01D046F009
:10423000020614F4806F04D01BF0040F01D046F086
:10424000040614F4006F16D01BF0700B13D0BBF1F2
:10425000400F66D056D8BBF1200F5CD0BBF1300FB9
:104260005CD0BBF1100F01D146F008062A689369B3
:1042700023F0700393612B6804225A60002E56D1FC
:10428000BDE8F88F2846FFF727FF6BE717F4006FAC
:1042900002D046F4804665E72846FFF720FF61E735
:1042A0002846FFF71AFF6EE717F4002F02D046F4F6
:1042B000803668E72846FFF713FF64E72B6808227B
:1042C000DA602846FFF70DFF6FE728460BF04EFB3C
:1042D00074E72B6808221A612846FFF703FF7EE780
:1042E00028460BF048FB82E72B6810225A602846CC
:1042F000FFF7F9FE81E72B6808225A602846FFF78E
:10430000F3FE80E7BBF1500F0ED0BBF1600FADD1D3
:1043100046F48076AAE746F01006A7E746F02006A6
:10432000A4E746F04006A1E746F080069EE76B6AE8
:1043300033436B622846FFF7D8FEA1E7002808DB6D
:104340000901C9B200F1604000F5614080F8001336
:10435000704700F00F000901C9B2014B19547047B2
:1043600014ED00E000B500F00700C0F1070CBCF14F
:10437000040F28BF4FF0040C031D062B0FD9C31EDA
:104380004FF0FF3E0EFA0CF021EA000199400EFAC0
:1043900003FE22EA0E0241EA02005DF804FB00235C
:1043A000EEE70000074AD36823F4E0631B041B0C0C
:1043B000000200F4E060034343F0BF6343F40033C2
:1043C000D360704700ED00E010B50446054BD86897
:1043D000C0F30220FFF7C6FF01462046FFF7AEFFFD
:1043E00010BD00BF00ED00E0002807DB00F01F0259
:1043F000400901239340024A42F82030704700BF31
:1044000000E100E058B110B5044643791BB1012327
:104410006371002010BD037108F000F8F7E7012078
:10442000704770B110B50446037933B1022323718C
:10443000002020610123237110BD437108F028F88A
:10444000F4E701207047034608465979012924D032
:1044500010B54FF0010E83F805E0022119711C68B8
:10446000216802F0100240F6FE7C0CFA02FC21EA00
:104470000C0C016840680143914041EA0C01216045
:104480001C682168C02000FA02F221EA02022260C0
:1044900083F804E00020587110BD0220704730B44A
:1044A00005682C6824F480242C60046863608368A9
:1044B000402B05D0036899600368DA6030BC704710
:1044C00003689A600368D960F8E7000010B40368D5
:1044D000D9B210390A4AA2FB01421209094CA25C66
:1044E000C2655F2907D96FF3090304338365806DC3
:1044F0005DF8044B70476FF309038365F7E700BF6E
:10450000ABAAAAAAE06D0108836A826992B9012B5D
:104510000AD0022B02D00BB100207047C36A13F0FF
:10452000807F28D100207047C36AB3F1C07F24D0B8
:1045300000207047B2F5005F09D0022B25D9032B6C
:1045400025D1C36A13F0807F23D100207047032B4D
:1045500003D8DFE803F01404140A00207047C36A8C
:1045600013F0807F0DD100207047C36AB3F1C07F84
:1045700009D00020704701207047012070470120BA
:1045800070470120704701207047012070470020CC
:10459000704701207047000070B50446FFF720F90E
:1045A000002C5BD00546022384F83530002384F8C4
:1045B00034302268136823F00103136023681A68FB
:1045C00012F0010F0AD0FFF70BF9431B052BF5D9A9
:1045D00020236365032084F8350070BD1A682049E4
:1045E00011406268A0680243E06802432069024308
:1045F00060690243A0690243E0690243206A024302
:104600000A43616A04291ED01A602668756925F07C
:104610000705636A1D43042B07D1A36A1D43E36AA0
:104620001BB12046FFF770FF90B975612046FFF778
:104630004DFFE26D3F2393408360002060650123BE
:1046400084F83530C9E7E16A206B01430A43DBE7B0
:1046500040236365012084F83500BEE70120BCE7F4
:104660003F8010F038B50446856D90F8340001287D
:104670002BD0012084F8340094F83500C0B2012812
:1046800004D0002384F83430022038BD022084F89E
:104690003500002060652046FFF701FFE26D3F23F3
:1046A0009340AB602268136843F016031360236CD9
:1046B00023B12268136843F008031360226813686B
:1046C00043F0010313600020DFE70220DDE770B54F
:1046D0000446866DFFF784F894F83530DBB2022B80
:1046E00006D080236365002384F83430012070BD38
:1046F00005462268136823F0160313602268536985
:1047000023F080035361236CE3B12268136823F024
:10471000080313602268136823F001031360236801
:104720001B6813F0010F11D0FFF75AF8431B052B3C
:10473000F5D920236365032084F83500002384F82D
:104740003430D4E7A36C002BDFD1E3E7E26D3F23E5
:104750009340B360012384F83530002084F834009E
:10476000C5E790F83530DBB2022B03D080234365D8
:1047700001207047052380F835300268136823F064
:104780000103136000207047F0B583B00446002396
:104790000193724B1D68724BA3FB0535AD0A876D03
:1047A0003E68C26D08239340334210D003681A68F4
:1047B00012F0040F0BD01A6822F004021A60C26DC6
:1047C00008239340BB60436D43F001034365E26DF2
:1047D00001239340334209D02268526912F0800FBE
:1047E00004D0BB60636D43F002036365E26D042394
:1047F0009340334209D02268126812F0020F04D0AD
:10480000BB60636D43F004036365E26D1023934066
:10481000334224D02268126812F0080F1FD0BB6008
:1048200023681A6812F4802F0DD01B6813F4002F30
:1048300004D1236C9BB12046984710E0A36C73B160
:10484000204698470BE01A6812F4807F03D11A685B
:1048500022F008021A60236C0BB120469847E26DE3
:1048600020239340334255D02268126812F0100F73
:1048700050D0BB6094F83530DBB2052B0ED02368E6
:104880001A6812F4802F33D01B6813F4002F2AD13A
:10489000636C002B3ED0204698473BE022681368AB
:1048A00023F0160313602268536923F080035361D9
:1048B000236CA3B12268136823F008031360E26D30
:1048C0003F239340BB60012384F83530002384F8F4
:1048D0003430236D002B3FD0204698473CE0A36C3A
:1048E000002BE7D1EBE7E36BA3B12046984711E03B
:1048F0001A6812F4807F09D11A6822F010021A6037
:10490000012384F83530002384F83430E36B0BB195
:1049100020469847636DFBB1636D13F0010F17D00C
:10492000052384F835302268136823F001031360EF
:10493000019B01330193AB4204D823681B6813F039
:10494000010FF5D1012384F83530002384F8343089
:10495000E36C0BB12046984703B0F0BDE4000020A3
:10496000B5814E1B90F8350070470000204BDB6886
:1049700013F0100F07D01F4AD36943F01003D3611F
:104980001B4B1022DA601A4BDB6813F0200F07D0A4
:10499000184AD36943F00803D361154B2022DA602B
:1049A000134BDB6813F0400F07D0124AD36943F072
:1049B0000403D3610E4B4022DA600D4BDB6813F029
:1049C000800F07D00B4AD36943F00203D361084B31
:1049D0008022DA60064BDB6813F0020F07D0054A2D
:1049E000D36943F02003D361014B0222DA607047A0
:1049F000003C0240E00600207047704710B53A4B7B
:104A0000DB6813F0F20F13D0384B1B78DBB2012BAD
:104A10003BD0364B1B78DBB2022B3CD0334B5C696E
:104A2000FFF7A4FF2046FFF7E8FF304B00221A7083
:104A30002D4BDB6813F0010F13D02B4B0122DA60F2
:104A40002A4B1B78DBB2934228D0284B1B78DBB271
:104A5000022B41D0254B5869FFF7CEFF234B002294
:104A60001A70224B1B787BB91F4B1A6922F0FF0288
:104A70001A611A6922F080721A611A6922F00072B2
:104A80001A611A4B00221A7610BD184BDC684FF0E1
:104A9000FF32DA60C4E7154B1C69C1E7134B5A6853
:104AA000013A5A605B685BB1104CE068FFF7A4FF05
:104AB000E3680133E360E068217A00F019F8D0E799
:104AC0000A4B4FF0FF34DC6000221A7000F036F819
:104AD0002046FFF791FFC4E700F030F8034B186958
:104AE000FFF78AFFBAE700BF003C0240E006002063
:104AF000012905D0022906D039B14FF4407104E0F4
:104B00004FF4807101E04FF400710B4B1A6922F4ED
:104B100040721A611A690A431A611A6922F0F8028E
:104B20001A611A6942EAC00040F0020018611A696D
:104B300042F480321A617047003C0240164B1B68F9
:104B400013F4007F10D0144B1A6822F400721A601C
:104B50001A6842F400621A601A6822F400621A604D
:104B60001A6842F400721A600B4B1B6813F4806FD2
:104B700010D0094B1A6822F480621A601A6842F455
:104B800080521A601A6822F480521A601A6842F43D
:104B900080621A60704700BF003C024000230F2B68
:104BA00000F2E98070B582B065E085684FEA430E97
:104BB000032404FA0EF425EA0405CC6804FA0EF482
:104BC0002C438460446824EA02044A68C2F3001259
:104BD0009A40224342605CE0DC08083450F824200C
:104BE00003F00705AD004FF00F0E0EFA05FE22EAA6
:104BF0000E0E0A69AA4042EA0E0240F824205CE048
:104C0000072200E0002202FA0EF22A4302345A4D33
:104C100045F82420594A94686FEA0C0224EA0C05EE
:104C20004E6816F4801F01D04CEA0405534CA56071
:104C3000E46802EA04054E6816F4001F01D04CEA4D
:104C400004054E4CE560646802EA04054E6816F4FB
:104C5000003F01D04CEA0405484C656024682240BE
:104C60004D6815F4803F01D04CEA0402434C2260A9
:104C700001330F2B7DD801229A400C6804EA020C04
:104C800032EA0404F4D14C6804F00304013C012C22
:104C90008BD94A6802F00302032A09D0C4685D0078
:104CA0000322AA4024EA02048A68AA402243C2607E
:104CB0004A6802F00302022A8ED004684FEA430ECB
:104CC000032202FA0EF224EA02044A6802F0030206
:104CD00002FA0EF2224302604A6812F4403FC7D043
:104CE00000220192264A546C44F480445464526C6D
:104CF00002F480420192019A9C08A51C1E4A52F8B7
:104D0000255003F0030E4FEA8E0E0F2202FA0EF228
:104D100025EA02051B4A90423FF474AF02F5806217
:104D200090421AD002F58062904218D002F580625B
:104D3000904216D002F58062904214D002F5806253
:104D4000904212D002F58062904210D002F580624B
:104D500090423FF455AF082255E7012253E7022263
:104D600051E703224FE704224DE705224BE70622D5
:104D700049E702B070BD704700380140003C014077
:104D800000380240000002400AB181617047090406
:104D90008161704708B5054B5B69034200D108BDCE
:104DA000024B58610AF036FFF9E700BF003C0140B2
:104DB00090F83E30DBB2402B10D00369B3F5804F42
:104DC0001BD0036D002B39D1436CC3F3C8130268A9
:104DD00003F0060343F0F00313617047036D2BB932
:104DE000436C026803F0FE0313617047436C026872
:104DF00043F00103DBB21361704790F83D30DBB242
:104E0000212B0FD0436C026843F00103DBB2136126
:104E1000436B6BB1DB6B5BB10268536843F40063B7
:104E200053607047436C026803F0FE031361EFE7C1
:104E3000836B33B1DB6B002BEED102E0036D012BF2
:104E400000D07047436CC3F3C813026803F0060335
:104E500043F0F1031361F4E7436C0268DBB21361C2
:104E6000436B3BB1DB6B2BB10268536843F40063C7
:104E700053607047836B002BFBD0DB6B002BF3D1AF
:104E8000F7E7000010B48BB090F83E30DAB2C16A98
:104E9000046B90F83D30DBB2222B0BD0002309933A
:104EA00003685A6909929B690993099B0BB05DF8E5
:104EB000044B7047036D0BB9402A17D0036D1BB923
:104EC0000369B3F5404F19D0438D9BB2002B25D118
:104ED000029303685A6902929A690292029A1A68C6
:104EE00042F400721A6000230365DFE70093036851
:104EF0005A6900929B690093009BD7E700230193B6
:104F000003685A6901929A690192019A1A6842F4F7
:104F100080721A60036D01330365C7E7438D9BB24E
:104F2000012B26D0438D9BB2022B7CD002681368E4
:104F300043F48063136003685A6812F4006F0FD063
:104F4000202900F2AE800829C0F0A7800839574A0E
:104F5000CA4012F0010F03D05A6842F480525A60DE
:104F60000023089303685A6908929B690893089B79
:104F7000B9E711F5803F11D0082934D0202932D06B
:104F8000122C2ED0042940D002293ED010293CD02A
:104F90000268136823F4806313603BE002681368BF
:104FA00023F48063136003685A6812F4006F0CD016
:104FB0001A6822F480621A600023039303685A6916
:104FC00003929B690393039B8DE7002204925A6925
:104FD00004929A690492049A1A6842F400721A6060
:104FE00081E70129D0D00268136823F4806313603D
:104FF0000023069303685A6906929A690692069AF4
:105000001A6842F400721A606DE70268136843F48C
:10501000806313600023059303685A6905929B69B6
:105020000593059B5FE710290AD8214BCB4013F06D
:10503000010F05D00268136843F48063136009E030
:105040000268136823F4806313600268136843F4F2
:105050000063136003685A6812F4006F0DD02029B2
:1050600017D8082912D30839104ACA4012F0010F84
:1050700003D05A6842F480525A60002307930368B1
:105080005A6907929B690793079B2CE70129F4D182
:10509000EFE711F5803FF0D1EBE701297FF460AF36
:1050A0005AE711F5803F7FF45BAF55E7010100013E
:1050B00014000100438D9BB25BB1426A0368127811
:1050C0001A61436A01334362438D9BB2013B9BB239
:1050D00043857047438D9BB25BB103681A69436A8D
:1050E0001A70436A01334362438D9BB2013B9BB20A
:1050F0004385704782B0002301930E4B1B68DB0889
:105100000D4AA2FB03231B0A03EB83030193019BBC
:10511000013B0193019B33B103681B6813F4007FCB
:10512000F5D1002004E0036C43F020030364012068
:1051300002B07047E400002089B5F814C36AB3F5E3
:105140002A0F04D0C36AB3F12A4F03D0704701235A
:10515000C36270470823C362F8E70000002800F02C
:10516000CC8070B5044690F83D30002B77D02423D6
:1051700084F83D302268136823F00103136022682D
:10518000136843F4004313602268136823F4004358
:10519000136002F051F862685A4B9A4264D85A4B35
:1051A00098428CBF00230123002B40F0A880574970
:1051B000A1FB00318B0C25686A6822F03F0242EAAD
:1051C00091426A6021680A6A22F03F0266684D4D8A
:1051D000AE424FD8013313430B622168CA6922F4EF
:1051E0004F4222F0FF026568464B9D424CD8431E59
:1051F0006D00B3FBF5F3013340F6FC70034278D049
:10520000C3F30B031A43CA6121680B6823F0C00380
:10521000E269206A024313430B6021688B6823F420
:10522000034323F0FF032269E068024313438B60CA
:105230002168CB6823F0FF036269A069024313432E
:10524000CB602268136843F00103136000202064E0
:10525000202384F83D30206384F83E0070BD80F840
:105260003C3007F0E9FA82E7294B98428CBF0023D3
:10527000012399E74FF4967505FB03F3254DA5FB34
:1052800003539B090133A6E7A668BEB9431E05EB8D
:10529000450CB3FBFCF30133C3F30B03B3FA83F305
:1052A0005B0943BBC6B9431E05EB4505B3FBF5F3EC
:1052B0000133C3F30B0343F40043A3E7431E05EBA1
:1052C000850C0CEB8C0CB3FBFCF30133C3F30B0329
:1052D000B3FA83F35B09E4E7431E05EB850505EBB1
:1052E0008505B3FBF5F30133C3F30B0343F44043EC
:1052F00088E7042386E7012384E701207047012023
:10530000ACE700BFA08601007F841E0083DE1B4344
:10531000FF083D00D34D62107047704708B590F804
:105320003D30DAB2438D9BB283B1416A036809789C
:105330001961436A01334362438D9BB2013B9BB2C7
:105340004385438D9BB20BB9292A00D008BD026862
:10535000536823F48063536021230363282380F878
:105360003D30FFF7DAFFF1E7704708B590F83D30C0
:10537000DAB2438D9BB283B103681969436A19702D
:10538000436A01334362438D9BB2013B9BB2438529
:10539000438D9BB20BB92A2A00D008BD026853681E
:1053A00023F48063536022230363282380F83D3075
:1053B000FFF7DAFFF1E7704700B583B090F83D30B2
:1053C00003F02803282B0CD00023019302685169B5
:1053D000019192690192019A80F83C3003B05DF826
:1053E00004FB0268536823F48063536011F0040FD8
:1053F0000BD0002311F0800F09D18289002180F8A1
:105400003C101946FFF7D7FFE8E70123F2E7028BCC
:10541000F4E7704708B590F83D30DBB2C26A082A5D
:1054200001D0202A01D1282B06D0212B1ED00368C1
:105430006FF480625A6108BD1A4BC36202685368F8
:1054400023F4E063536003686FF480625A6102687A
:10545000136823F48063136000230363202280F821
:105460003D2080F83E30FFF7D4FFE4E70D4BC362E8
:1054700021230363202380F83D30002380F83E3051
:105480000268536823F4E063536003686FF480623A
:105490005A610268136823F480631360FFF73DFFCD
:1054A000C9E700BF0000FFFF704708B5C26A90F867
:1054B0003D30DBB2212B00D008BD438D9BB263B1E0
:1054C000426A036812781A61436A01334362438D6A
:1054D0009BB2013B9BB24385EEE7082A04D0202A09
:1054E00002D012F5803F19D10268536823F4E063BB
:1054F00053600268136843F400731360002303636E
:10550000202380F83D3090F83E30DBB2402B15D0A0
:10551000002380F83E30FFF7FFFECDE702685368B6
:1055200023F4E063536011230363002380F83E30CB
:10553000202380F83D30FFF7EFFEBDE7002380F821
:105540003E30FFF7B1FFB7E708B590F83D30026D88
:105550009AB9C36C012B08D0836C0268C3F307238C
:105560001361036D0133036508BD836C0268DBB210
:105570001361036D02330365F6E7DBB2026D012AA6
:1055800023D0026D022AEFD1222B26D0428D92B277
:105590000AB1212B2AD0428D92B2002AE4D1212BCC
:1055A000E2D10268536823F4E06353600268136831
:1055B00043F40073136000230363202280F83D202E
:1055C00080F83E30FFF770FFCEE7836C0268DBB2F5
:1055D0001361036D01330365C6E70268136843F482
:1055E00080731360036D01330365BDE7426A03688E
:1055F00012781A61436A01334362438D9BB2013BC7
:105600009BB24385B0E710B590F83D30DBB290F81F
:105610003E20D2B2C46A018D00293BD1212B02D099
:10562000402A42D010BD082C04D0202C02D014F502
:10563000803F19D10268536823F4E0635360026825
:10564000136843F40073136000230363202380F87E
:105650003D3090F83E30DBB2402B15D0002380F86F
:105660003E30FFF759FEDDE70268536823F4E0633C
:10567000536011230363002380F83E30202380F819
:105680003D30FFF749FECDE7002380F83E30FFF7BD
:105690000BFFC7E7212BC3D1438D9BB243B90268EF
:1056A000536823F480635360BCE7222BBAD1F3E73D
:1056B00090F83E30DBB2402B0CD0426A036812787F
:1056C0001A61436A01334362438D9BB2013B9BB233
:1056D0004385A7E7FFF738FFA4E708B5C26A438D03
:1056E0009BB2042B14D0438D9BB2032B22D0438D4D
:1056F0009BB2022B39D003681A69436A1A70436A55
:1057000001334362438D9BB2013B9BB2438510E062
:105710000268536823F48063536003681A69436A1C
:105720001A70436A01334362438D9BB2013B9BB2C3
:10573000438508BD01684B6823F480634B60042AED
:1057400006D0022A04D00268136823F48063136031
:1057500003681A69436A1A70436A01334362438DCE
:105760009BB2013B9BB24385E3E7013A0F2A40D845
:10577000DFE802F008393F393F3F3F3F3F3F3F3FBF
:105780003F3F3F080268136823F480631360036897
:105790001A69436A1A70426A531C4362438D9BB272
:1057A000013B9BB2438503681B695370436A013315
:1057B0004362438D9BB2013B9BB2438502685368B1
:1057C00023F440735360202380F83D3090F83E303E
:1057D000DBB2402B13D0002380F83E30122303634A
:1057E0000AF030FAA5E70268136843F48063136097
:1057F000CDE70268136843F400731360C7E7002322
:1058000080F83E3003630AF047FA92E7704790F859
:105810003D30DBB2222B00D0704710B50446438DDB
:105820009BB2032B15D903681A69436A1A70436A3D
:1058300001334362438D9BB2013B9BB24385438D51
:105840009BB2032B0FD10268536823F4806353602B
:1058500009E0C26A022A01D0012B05D922685368E7
:1058600023F48063536010BDFFF744FC00282ED161
:105870002268136823F4806313602268536823F45A
:10588000E063536023681A69636A1A70636A0133BC
:105890006362638D9BB2013B9BB26385202384F8D6
:1058A0003D3094F83E30DBB2402B08D0002384F822
:1058B0003E301223236320460AF0C4F9D3E70023C5
:1058C00084F83E30236320460AF0E6F9CBE72268ED
:1058D000536823F4E063536023681A69636A1A709B
:1058E000636A01336362638D9BB2013B9BB2638544
:1058F000202384F83D30002384F83E302046FFF713
:1059000085FFB0E77047000000B583B00023019326
:10591000806B90F83D20D2B2324B1B68DB083249D5
:10592000A1FB03131B0A03EB8303C3EBC303019324
:10593000019B43B1019B013B019303681B6813F476
:10594000007FF5D103E0036C43F020030364436B55
:105950000BB10021D963836B0BB10021D9630168BE
:105960000B6823F480630B6000234385436B0BB10A
:1059700000211965836B0BB10021196501680B6863
:1059800023F001030B6090F83D30DBB2602B0ED0AA
:1059900002F02802282A14D0202380F83D3000236A
:1059A00080F83E30FFF732FF03B05DF804FB2023A0
:1059B00080F83D30002380F83E300364FFF7A2FFFB
:1059C000F2E70268136843F001031360026813688A
:1059D00043F48063136000230363282380F83D3081
:1059E000E0E700BFE400002089B5F81410B50446D4
:1059F00090F83D30DBB290F83E20D2B2102A36D07B
:105A0000402A34D003F02802282A38D0226852686D
:105A100012F4006F07D1602B05D0202384F83D30AD
:105A2000002384F83E300023236323685A6812F46D
:105A3000006F48D05A6822F400625A60626B92F894
:105A40003530DBB2012B20D0444B1365606BFEF781
:105A500088FE002849D02268136823F001031360F0
:105A6000202384F83D30606B036D98473DE0222B86
:105A7000C8D121680A6822F400620A60C2E70023E4
:105A80002363282384F83D30CFE7A36B334A1A659C
:105A9000A06BFEF766FE40B323685A6912F0400F10
:105AA00005D01A69636A1A70636A013363622268F7
:105AB000136823F001031360202384F83D30A06BAA
:105AC000036D984711E094F83D20D2B2602A1FD0B0
:105AD0005A6912F0400F05D01A69636A1A70636A36
:105AE000013363622046FFF791FE236C13F00F0F22
:105AF00004D02268536823F4E063536094F83D3087
:105B0000DBB2226C12F0040F01D0282B18D010BD8C
